:1000000012C02CC02BC02AC029C028C027C026C0BF
:1000100025C08AC023C022C021C020C01FC01EC06E
:100020001DC01CC01BC011241FBECFE5D4E0DEBF25
:10003000CDBF10E0A0E6B0E0E6EEF1E002C0059032
:100040000D92A43DB107D9F720E0A4EDB0E001C0C6
:100050001D92AA3DB207E1F720D0C3C0D1CFCF9304
:10006000DF9300D0CDB7DEB783E089831A82CE015B
:10007000019628D082D080E690E08DD048D02FE73E
:100080008AE196E0215080409040E1F700C00000F6
:100090000F900F90DF91CF910895E1DF82E090E023
:1000A00002D075D0FBCF24D08A30910548F0BC0136
:1000B000695071098AE69AE180D08CEF860F089525
:1000C00080E00895FC0190819295990F990F907CA2
:1000D00097B996B1977F96B986B19181887F892B20
:1000E00086B986B18F7D86B986B1806886B9089554
:1000F00097B1907F892B87B986B1806486B9349B8C
:10010000FECF86B1806186B984B195B1089583B779
:10011000816083BF12BE89B7816089BF78941092D5
:10012000D5001092D40008951F920F920FB60F922F
:1001300011248F939F938091D4009091D5000196C4
:100140009093D5008093D4008091D8009091D900ED
:1001500001969093D9008093D8008091D600909119
:10016000D70001969093D7008093D6009F918F91EE
:100170000F900FBE0F901F90189510BC89E189B9A0
:100180008AB188618AB980B5866880BD08955D9B13
:10019000FECF8CB908950F931F93CF938C01C0E0CD
:1001A00002C0F5DFCF5FF801EC0FF11D80818111F6
:1001B000F8CFCF911F910F910895AA1BBB1B51E15E
:1001C00007C0AA1FBB1FA617B70710F0A61BB70BC7
:1001D000881F991F5A95A9F780959095BC01CD016C
:0601E0000895F894FFCF22
:1001E600657368746138616C002075700020646FF7
:1001F600776E00207972616220694E435245415301
:10020600452053454E5349544956495459230020D5
:1002160053454E442043555252454E54204C4F436D
:100226004154494F4E2300205350454543482041F1
:100236005353495354414E54230020656D65722033
:1002460063616C6C00206465632073656E730020C7
:040256006F63720060
:00000001FF
