S0270000536D6172745F476C61737365735F477261756174696F6E5F50726F6A6563742E7372656386
S113000053C06DC06CC06BC06AC069C068C067C0B3
S113001066C02FC464C063C062C061C060C05FC0FA
S11300205EC05DC05CC007634236B79BD8A71A396F
S1130030685618AEBAAB558C1D3CB7CC5763BD6D32
S1130040EDFD753EF6177231BF000000803F0800D9
S11300500000BE922449123EABAAAA2ABECDCCCC43
S11300604C3E00000080BEABAAAAAA3E00000000DD
S1130070BF000000803F0000000000084178D3BBAF
S11300804387D1133D190E3CC3BD4282AD2B3E685C
S1130090EC8276BED98FE1A93E4C80EFFFBE01C44D
S11300A0FF7F3F000000000011241FBECFE5D4E015
S11300B0DEBFCDBF10E0A0E6B0E0E0EFF0E102C0AB
S11300C005900D92AE3BB107D9F720E0AEEBB0E05E
S11300D001C01D92AF3CB207E1F749D107C890CFE8
S11300E0CF93DF9300D0CDB7DEB783E0898386E07A
S11300F08A83CE010196B3D200D4AED30F900F9071
S1130100DF91CF910895CF93C0E02BC08C2F2CD2D8
S113011096EF980F9A3020F464E68C2F91D21AC08F
S11301209CEE980F9A3020F46CE38C2F89D212C085
S113013092EE980F9A3020F46EE18C2F81D20AC08F
S113014088528A3020F46FE08C2F7AD203C060E0AA
S11301508C2F76D283ED90E30197F1F700C0000075
S1130160CF5FC33098F2CF9108953CD1882359F0E2
S11301708091C200811107C081E08093C200109277
S1130180C6001092C5005AD1882359F08091C1004D
S1130190811107C081E08093C1001092CE001092BB
S11301A0CD0037D1882359F08091C000811107C058
S11301B081E08093C0001092CC001092CB0080911B
S11301C0C200813009F041C08091BF0081113DC05F
S11301D081E08093BE008091C5009091C600803775
S11301E09741B8F48091C100882379F18091C000CF
S11301F0882359F180E690E08ED30BD18111FDCF95
S11302001092C2001092C0001092C1001092BE0061
S11302101CC0E8D0882391F08091C5009091C6005D
S1130220813E9E4290F08CE690E075D3DBD0811144
S1130230FDCF1092C2001092BE0007C086E790E086
S11302406AD31092C2001092BE008091C000813027
S113025009F041C08091BE0081113DC081E08093CE
S1130260BF008091CB009091CC0080379741B8F4C7
S11302708091C100882379F18091C200882359F1CB
S113028081E890E048D3AED08111FDCF1092C20036
S11302901092C0001092C1001092BF001CC0B9D0CF
S11302A0882391F08091CB009091CC00813E9E42B6
S11302B090F08EE890E02FD3ACD08111FDCF109256
S11302C0C0001092BF0007C08BE990E024D31092C5
S11302D0C0001092BF008091C100813039F5809137
S11302E0C200811123C08091C00081111FC0809180
S11302F0CD009091CE00813D9740C0F09FD08823DF
S113030081F08091CD009091CE00813E9E4270F0AC
S113031089EA90E000D392D08111FDCF1092C10000
S113032005C087EB90E0F7D21092C1008091CB001A
S11303309091CC0081389E43C8F08091C500909183
S1130340C60081389E4390F01092C2001092C00003
S11303501092C1001092BF001092BE001092CC0007
S11303601092CB001092C6001092C5000895B8DE1A
S1130370CADEFBDEFDCF1F93CF93DF93182FEB0173
S113038060E088E2E9D1812F10D261E088E2E4D113
S11303901AD2888304D280E0DF91CF911F9108950F
S11303A0CF93DF93D82FC62F60E088E2D5D18D2F6D
S11303B0FCD18C2FFAD1F3D1DF91CF910895CF9353
S11303C0DF931F92CDB7DEB7BE016F5F7F4F80E032
S11303D0D2DF69816E7F698380E0E2DF0F90DF9175
S11303E0CF9108951F93CF93DF931F92CDB7DEB7BC
S11303F0BE016F5F7F4F83E0BEDF1981113011F4BE
S1130400DEDF01C010E0812F0F90DF91CF911F91AB
S11304100895CF93DF931F92CDB7DEB7BE016F5F10
S11304207F4F83E0A8DF8981843019F4C8DF81E03D
S113043001C080E00F90DF91CF910895CF93DF93B7
S11304401F92CDB7DEB7BE016F5F7F4F83E093DFAE
S11304508981823019F4B3DF81E001C080E00F901C
S1130460DF91CF9108954F925F926F927F92AF92F6
S1130470BF92CF92DF92EF92FF920F931F93CF938D
S1130480DF93CDB7DEB729013A019B01AC012419F2
S113049035094609570989899A89AB89BC89BC0100
S11304A0CD016A197B098C099D0996D5A80197018C
S11304B02419350946095709B1D5C601B501620F9A
S11304C0731F841F951FDF91CF911F910F91FF9090
S11304D0EF90DF90CF90BF90AF907F906F905F9040
S11304E04F900895EF92FF920F931F93CF93DF9352
S11304F0C0E0D0E02CC0D901AA0FBB1FA80FB91FC0
S11305004D915C911197F9013196EE0FFF1FE80FA1
S1130510F91FE080F180E416F50634F4ED92FC92C4
S11305205183408300E010E02F5F3F4F04C020E080
S113053030E001E010E0AE014F5F5F4FFB01E41BD0
S1130540F50B2E173F07BCF2012B39F4EA019B018E
S113055021503109C217D30754F3DF91CF911F9172
S11305600F91FF90EF900895AF92BF92CF92DF92D8
S1130570EF92FF920F931F93CF93DF93CDB7DEB724
S1130580E2970FB6F894DEBF0FBECDBFE82EF12C74
S11305900FC00F2D10E08E2D78D0000F111FE1E059
S11305A0F0E0EC0FFD1FE00FF11F91838083F394C3
S11305B088E18F1570F769E170E0CE01019692DF52
S11305C0698D7A8D072E000C880B990B1F921F9250
S11305D023E12F9328E82F93A12CB12C6501EE245D
S11305E0EA9413E0F12E00E010E020E030E0A901ED
S11305F03ADF0F900F900F900F9035D220E030E04B
S11306004AE754E49AD12EE03DE24AE95FEB1AD37B
S113061022EF32ED4DED51E4B2D2F7D1862FE296BE
S11306200FB6F894DEBF0FBECDBFDF91CF911F91FF
S11306300F91FF90EF90DF90CF90BF90AF9008950F
S1130640811103C0862FC6D00895813019F4862FF6
S1130650F1D00895823011F4862FD4D00895FC018E
S113066090819295990F990F907C97B996B1977F45
S113067096B986B19181887F892B86B986B18F7DA1
S113068086B986B1806886B9089597B1907F892B21
S113069087B986B1806486B9349BFECF24B135B165
S11306A096B1906196B9C9010895683008F053C0B5
S11306B0833008F050C08130E9F018F0823099F1AD
S11306C00895413059F427B381E090E002C0880FC7
S11306D0991F6A95E2F7822B87BB089527B381E0BF
S11306E090E002C0880F991F6A95E2F780958223F3
S11306F087BB0895413059F424B381E090E002C0EF
S1130700880F991F6A95E2F7822B84BB089524B35E
S113071081E090E002C0880F991F6A95E2F7809506
S1130720822384BB0895413059F421B381E090E0E1
S113073002C0880F991F6A95E2F7822B81BB089546
S113074021B381E090E002C0880F991F6A95E2F717
S11307508095822381BB089594EA96BF06B607FE6E
S1130760FDCF91B1987F983011F0903191F490E0E1
S1130770880F991F862B83B984E886BF06B607FEC7
S1130780FDCF81B1887F883131F0803431F480E04D
S1130790089581E0089580E0089581E0089584E952
S11307A086BF06B604FCFDCF089583B984E886BFEE
S11307B006B607FEFDCF81B1887F883211F081E053
S11307C0089580E0089584E886BF06B607FEFDCF4D
S11307D083B10895CF93853698F4C82F41E061E042
S11307E080E063DF81EA8FBD89E08EBD2FEFC29F79
S11307F0C001112464E670E0FED377277BBD6ABD97
S1130800CF910895CF93853698F4C82F41E062E0E4
S113081080E04BDF81EA8FBD89E08EBD2FEFC29F60
S1130820C001112464E670E0E6D3772779BD68BD82
S1130830CF910895CF93C82F41E063E080E035DF86
S113084089E685BD2FEFC29FC001112464E670E0E4
S1130850D2D363BDCF91089583B7816083BF12BEA5
S113086089B7816089BF78941092C6001092C50040
S113087008951F920F920FB60F9211248F939F9396
S11308808091C5009091C60001969093C600809314
S1130890C5008091CB009091CC0001969093CC0040
S11308A08093CB008091CD009091CE0001969093DF
S11308B0CE008093CD008091C9009091CA0001962A
S11308C09093CA008093C9008091C3009091C400A2
S11308D001969093C4008093C3008091C7009091C7
S11308E0C80001969093C8008093C7009F918F9190
S11308F00F900FBE0F901F90189510BC89E189B915
S11309008AB188618AB980B5866880BD08955D9B87
S1130910FECF8CB908950F931F93CF938C01C0E041
S113092002C0F5DFCF5FF801EC0FF11D808181116A
S1130930F8CFCF911F910F9108950CD0E6C0DED06F
S113094040F0D5D030F021F45F3F19F0C7C0511109
S113095010C1CAC0EBD098F39923C9F35523B1F35E
S1130960951B550BBB27AA2762177307840738F01A
S11309709F5F5F4F220F331F441FAA1FA9F333D079
S11309800E2E3AF0E0E830D091505040E695001C2D
S1130990CAF729D0FE2F27D0660F771F881FBB1FE9
S11309A0261737074807AB07B0E809F0BB0B802DC3
S11309B0BF01FF2793585F4F2AF09E3F510568F00F
S11309C08DC0D7C05F3FECF3983EDCF386957795F6
S11309D06795B795F7959F5FC9F7880F911D969511
S11309E0879597F90895E1E0660F771F881FBB1F6D
S11309F0621773078407BA0720F0621B730B840B1A
S1130A00BA0BEE1F88F7E095089598D088F09F57A9
S1130A1090F0B92F9927B751A0F0D1F0660F771F46
S1130A20881F991F1AF0BA95C9F712C0B13081F026
S1130A309FD0B1E008959CC0672F782F8827B85FB6
S1130A4039F0B93FCCF3869577956795B395D9F787
S1130A503EF490958095709561957F4F8F4F9F4F91
S1130A600895E89409C097FB3EF49095809570959D
S1130A7061957F4F8F4F9F4F9923A9F0F92F96E9E6
S1130A80BB279395F695879577956795B795F1115B
S1130A90F8CFFAF4BB0F11F460FF1BC06F5F7F4FF8
S1130AA08F4F9F4F16C0882311F096E911C077230A
S1130AB021F09EE8872F762F05C0662371F096E813
S1130AC0862F70E060E02AF09A95660F771F881FE2
S1130AD0DAF7880F9695879597F9089597F99F67A0
S1130AE080E870E060E008959FEF80EC08950024B2
S1130AF00A941616170618060906089500240A947F
S1130B0012161306140605060895092E0394000C04
S1130B1011F4882352F0BB0F40F4BF2B11F460FF93
S1130B2004C06F5F7F4F8F4F9F4F089557FD9058BC
S1130B30440F551F59F05F3F71F04795880F97FB9D
S1130B40991F61F09F3F79F0879508951216130657
S1130B501406551FF2CF4695F1DF08C01616170686
S1130B601806991FF1CF86957105610508940895BB
S1130B70E894BB2766277727CB0197F908950BD014
S1130B80C4CFB5DF28F0BADF18F0952309F0A6CF5B
S1130B90ABCF1124EECFCADFA0F3959FD1F3950F0D
S1130BA050E0551F629FF001729FBB27F00DB11DED
S1130BB0639FAA27F00DB11DAA1F649F6627B00D7D
S1130BC0A11D661F829F2227B00DA11D621F739F66
S1130BD0B00DA11D621F839FA00D611D221F749F74
S1130BE03327A00D611D231F849F600D211D822FBB
S1130BF0762F6A2F11249F5750408AF0E1F0882302
S1130C004AF0EE0FFF1FBB1F661F771F881F91500E
S1130C105040A9F79E3F510570F060CFAACF5F3FC7
S1130C20ECF3983EDCF3869577956795B795F79541
S1130C30E7959F5FC1F7FE2B880F911D96958795C9
S1130C4097F90895FA01EE0FFF1F3096210531053B
S1130C5099F16115710561F48038BFE39B0749F18F
S1130C6068949038810561F08038BFEF9B0741F0AC
S1130C70992342F5FF3FE1053105210511F1E8947F
S1130C800894E795D901AA2329F4AB2FBE2FF85F66
S1130C90D0F310C0FF5F70F4A695E0F7F73950F079
S1130CA019F0FF3A38F49F779F930CD00F9007FC0C
S1130CB0905808953EF018CF60E070E080E89FE31C
S1130CC008954FE79F775F934F933F932F939ED061
S1130CD02F913F914F915F9152DF05C019F40EF0AF
S1130CE0FDCE46CF01CF2ADFC8F39638C0F707F808
S1130CF00F92E8942BE33AEA48EB5FE74EDF0F925A
S1130D000F920F924DB75EB70F92C0D0E6E2F0E0BB
S1130D1016D04F915F91EF91FF91E595EE1FFF1F64
S1130D2049F0FE57E0684427EE0F441FFA95E1F7B7
S1130D304195550B32D00F9007FE26C00895DF93DE
S1130D40CF931F930F93FF92EF92DF927B018C015D
S1130D50689405C0DA2EEF011EDFFE01E894A59128
S1130D602591359145915591AEF3EF01D4D0FE0113
S1130D709701A801DA9479F7DF90EF90FF900F9133
S1130D801F91CF91DF9108959B01AC0160E070E069
S1130D9080E89FE3D2CDA2CE11C1D0DEE8F399233F
S1130DA0D9F3940F511DBBF39150504094F059F076
S1130DB0882332F0660F771F881F91505040C1F787
S1130DC09E3F510544F7880F911D9695879597F995
S1130DD008955F3FACF0983E9CF0BB2786957795CD
S1130DE06795B79508F4B1609395C1F7BB0F58F7B1
S1130DF011F460FFE8CF6F5F7F4F8F4F9F4FE3CFBA
S1130E00B8CE0EF0DBC070CE689468CE97DEC8F31F
S1130E109923D1F3C6F3DF93CF931F930F93FF92DC
S1130E20C92FDD2788232AF02197660F771F881F93
S1130E30DAF720E030E040E85FEB9FE3883920F008
S1130E40803E30F021968F7755D0EEE4F0E003C079
S1130E5051D0EBE7F0E073DF8B01BE01EC01FB2E18
S1130E606F5771097595771F880B990BFCDD28E185
S1130E7032E741E35FE38FDEAF2D9801AE01FF90CF
S1130E800F911F91CF91DF9146D03FCEFA01DC0143
S1130E90AA0FBB1F9B01AC01BF5728F4222733279D
S1130EA0442750781FC0B75188F4AB2F00244695CF
S1130EB037952795011CA395D2F3002069F0220FE2
S1130EC0331F441FB395DAF30DD013C0613071059D
S1130ED0A0E88A07B94630F49B01AC01662777275E
S1130EE088279078309621F020833183428353837E
S1130EF008955058BB27AA270ED007CEF8DD30F04E
S1130F00FDDD20F031F49F3F11F41EF4EDCD0EF41D
S1130F10E095E7FBE3CDE92F09DE80F3BA1762071A
S1130F2073078407950718F071F49EF521CE0EF42B
S1130F30E0950B2EBA2FA02D0B01B90190010C01E5
S1130F40CA01A0011124FF27591B99F0593F50F4FD
S1130F50503E68F11A16F040A22F232F342F442755
S1130F60585FF3CF469537952795A795F04053954D
S1130F70C9F77EF41F16BA0B620B730B840BBAF01D
S1130F809150A1F0FF0FBB1F661F771F881FC2F788
S1130F900EC0BA0F621F731F841F48F4879577959C
S1130FA06795B795F7959E3F08F0B3CF9395880F53
S1130FB008F09927EE0F9795879508959F3F31F094
S1130FC0915020F4879577956795B795880F911D73
S1130FD09695879597F90895DB018F939F933AD05F
S1130FE0BF91AF91A29F800D911DA39F900DB29FC1
S1130FF0900D1124089597FB072E16F4009406D043
S113100077FD08D031D007FC05D03EF4909581954A
S11310109F4F0895709561957F4F0895052E97FB16
S113102016F400940FD057FD05D032D007FC02D03F
S113103046F408C050954095309521953F4F4F4F49
S11310405F4F089590958095709561957F4F8F4F70
S11310509F4F08953FD0A59F900DB49F900DA49FDE
S1131060800D911D11240895AA1BBB1B51E107C0DB
S1131070AA1FBB1FA617B70710F0A61BB70B881F24
S1131080991F5A95A9F780959095BC01CD010895B3
S1131090A1E21A2EAA1BBB1BFD010DC0AA1FBB1F78
S11310A0EE1FFF1FA217B307E407F50720F0A21BEA
S11310B0B30BE40BF50B661F771F881F991F1A9457
S11310C069F760957095809590959B01AC01BD0181
S11310D0CF010895A29FB001B39FC001A39F01D087
S11310E0B29F700D811D1124911D0895F894FFCFB6
S11310F02073776970654C4546542000484F4C4432
S1131100204C454654004C45465420434C49434BDF
S113111000207377697065526967687420002048FD
S11311204F4C442052494748542000205269676874
S11311307420434C49434B2000204D4944444C45C2
S111114020484F4C4420004D4944444C450087
S9030000FC
